:020000040800F2
:10000000B80A0020AD0200088B2F00084D2D000813
:10001000892F000809040008F53C000800000000D2
:10002000000000000000000000000000893100080E
:1000300031050008000000008D2F00088B310008FA
:10004000C7020008C7020008C7020008C70200086C
:10005000C7020008C7020008C7020008C70200085C
:10006000C7020008C7020008C7020008C70200084C
:100070000D040008C7020008C7020008C7020008F4
:10008000C7020008C7020008C7020008C70200082C
:10009000C7020008C7020008C7020008C70200081C
:1000A000C7020008C7020008C7020008C70200080C
:1000B000C7020008C7020008C7020008C7020008FC
:1000C000C7020008C7020008C7020008C7020008EC
:1000D000C7020008C7020008C7020008C7020008DC
:1000E000C7020008C702000800000000C70200089D
:1000F000C7020008C7020008C7020008C7020008BC
:10010000C7020008C7020008C7020008C7020008AB
:10011000C1320008C7020008C7020008C702000871
:10012000C7020008C7020008C7020008C70200088B
:10013000C7020008C7020008C7020008C70200087B
:1001400000000000000000000000000000000000AF
:10015000C7020008C7020008C7020008C70200085B
:10016000C7020008C7020008C7020008C70200084B
:10017000C7020008C7020008C7020008000000000C
:10018000C7020008C7020008C7020008C70200082B
:10019000C7020008C7020008C7020008C70200081B
:1001A000C7020008C7020008C7020008C70200080B
:1001B000C7020008C7020008C7020008C7020008FB
:1001C000C7020008C7020008C7020008C7020008EB
:1001D000C7020008C7020008C7020008C7020008DB
:1001E000C7020008C7020008C7020008C7020008CB
:1001F000C7020008C7020008C7020008C7020008BB
:10020000C7020008C7020008C7020008C7020008AA
:10021000C7020008C7020008C7020008C70200089A
:10022000C7020008C7020008C7020008000000005B
:10023000C7020008C702000800000000C70200084B
:10024000C7020008C7020008C7020008C70200086A
:10025000C7020008C7020008C7020008C70200085A
:10026000C7020008C7020008C7020008C70200084A
:10027000C7020008C7020008C7020008000000000B
:10028000C702000800000000C702000800000000CC
:1002900000000000C7020008DFF80CD000F0A2F850
:1002A00000480047AD400008B80A002006488047D3
:1002B00006480047FEE7FEE7FEE7FEE7FEE7FEE74B
:1002C000FEE7FEE7FEE7FEE7393200089902000884
:1002D0002DE9F05F0546002092469B46884606467B
:1002E000814640241BE0284641464746224600F00E
:1002F00069F853465A46C01A914110D31146184620
:10030000224600F050F82D1A67EB01084F462246AE
:100310000120002100F047F817EB00094E41201E94
:10032000A4F10104DFDC484631462A464346BDE8D5
:10033000F09F40EA01039B0703D009E008C9121FA0
:1003400008C0042AFAD203E011F8013B00F8013B8F
:10035000521EF9D27047D2B201E000F8012B491EBB
:10036000FBD270470022F6E710B513460A46044652
:100370001946FFF7F0FF204610BD30B50B46014689
:1003800000202022012409E021FA02F59D4205D334
:1003900003FA02F5491B04FA02F52844151EA2F1DE
:1003A0000102F1DC30BD202A04DB203A00FA02F120
:1003B000002070479140C2F1200320FA03F3194353
:1003C00090407047202A04DB203A21FA02F00021F5
:1003D000704721FA02F3D040C2F120029140084355
:1003E00019467047064C074D06E0E06840F00103EF
:1003F00094E8070098471034AC42F6D3FFF750FF5B
:100400006C4100088C410008FEE70000014800F044
:1004100077BA00004006002001681823CAB2103ADB
:10042000B2FBF3F2054B6FF30901032A9B5CC36532
:1004300000D9091D81650846704700005441000835
:1004400030B512490123026854188C2CD1B209D856
:1004500014220F4C0839B1FBF2F10D4A803204EB43
:1004600081040DE018240B4D1039B1FBF4F12A443E
:10047000A82A00D80831084A02EB8104064A8032D3
:1004800004668B40C0E9192330BD0000F8ABFDA71E
:1004900000580258F0FBFDBF0008024010B501797A
:1004A00003684A1E072A11D8094C23448C2B03D811
:1004B000084B084C443302E0074B074C443304EB31
:1004C0008101C0E91B1301219140416710BD00006B
:1004D000F8ABFDA7FC580258FC08024010B5836930
:1004E0004FF0C074826A0146002053B1B3F5005F3B
:1004F00015D072B1012A0CD0022A0AD0032A09D1E0
:1005000004E01AB1012A06D0022A03D1C96AC9013E
:1005100000D5012010BDC96AA142FAD010BD002A41
:10052000F7D0012AF2D0022AF3D0032AF3D010BD6B
:10053000704770B5A2B0064600244FF4C360012591
:100540008DF80F5002238DF81D4069038DF80E5071
:1005500009948DF81F400D9020208DF804508DF8DF
:10056000325042028DF8605006914FF040518DF8A4
:10057000384002948DF861408DF81C408DF8284079
:100580008DF862408DF80C400B948DF81E500F943E
:100590008DF8115012948DF840408DF831408DF84F
:1005A000124014948DF856401790304616938DF8EB
:1005B000205005928DF854408DF830408DF8105041
:1005C000009169468DF80D408DF8554011948DF8D5
:1005D0004C5000F075F81B9568058DF871404FF48C
:1005E00006718DF8685019948DF880408DF8704030
:1005F0001F908DF878401D9030468DF881402191F4
:1006000019A900F003F822B070BD0000F0B502682F
:1006100047F6020E274E4DF2010702F58052264D95
:10062000D1F800C01368254C23EA0E0343EA0C03FB
:1006300013600B79026891F80CE002F58052D1F852
:1006400008C01B0343EACE3343EA0C03D2F804C0CC
:100650002CEA070C4CEA030CC2F804C002684F7B7A
:1006600002F580520B6A43EA0747D2F80031334063
:100670003B43C2F8003102680B7D02F5805291F8CD
:100680001DC00F69D2F804611B0143EA0C332E40F0
:100690003B431E43C2F8046100680B7F00F58050A5
:1006A0008A69D0F8081142EAC37221401143C0F8A8
:1006B0000811F0BD00C0FEFFEFEFC0FFFFFFC07FDD
:1006C000F0B50B790C7B0F688A68DB064D7B43EA3B
:1006D000C4533A438E7B1A43CF7B91F810C042EA51
:1006E000855242EA4652BCF1000F42EA07537CD0E1
:1006F00000224C7C002C43EAC24278D000238E7C3E
:100700000D7F42EA43428F7FD1E9053442EA064237
:100710004E7F1A43224342EA0532002F42EAC624A2
:1007200066D00022CD7F91F8203044EA8222002B4F
:1007300042EA45227ED0002504684B6A42EA05223F
:1007400091F82870464D1A43CE6A236842EA071290
:1007500032432B401343236091F83C2091F838300A
:1007600091F8305091F83140520642EA036291F814
:10077000326042EA854242EA4444BEB30022036842
:10078000384E4F6B44EA02425C683A4340F20F1520
:10079000344014435C60036891F840604C6CDA6844
:1007A00044EA0624AA432243DA6091F854300A6DE1
:1007B00091F84C4042EA4302ECB300240368B1F8DC
:1007C00048504FF60D76E7011C6F47EA05452A436E
:1007D000344014431C67026891F8563091F8555024
:1007E00052F8904F43EA450303E02BE032E02BE060
:1007F0002CE024F003041C43146002688C6DD2F8D2
:10080000003D23F072032343C2F8003D91F86020BD
:10081000CC6D1AB35FF00003026891F8615091F853
:10082000621044EA8310D2F8303D2C0144EAC10141
:10083000084301E00CE00FE023F07B010143C2F824
:10084000301DF0BD012254E7012358E7012269E77A
:10085000012571E7012292E70124AFE70123DBE7DD
:10086000838004000080F8C07047000010B528B1F4
:1008700090F83510022903D080214165012010BD78
:100880001D4A4FF4956301688C189C4207D80422D6
:1008900080F83520086820F00100086029E00C6825
:1008A00024F00E040C6001680A440A6822F0010278
:1008B0000A60016E0122114B0C6824F480740C60F4
:1008C00090F85C1002FA01F11960D0E919134B603D
:1008D000C16E31B10B6823F480730B60D0E91C1337
:1008E0004B600023016D80F8343080F8352001B171
:1008F0008847002010BD0000F0FFFDBF04540258DF
:100900002DE9F84FAB4A00274FF4165304460097E1
:100910004FF49569DFF8988216680822A56DB6FB3A
:10092000F3FB00682E6800EB080CCC454FF0010A81
:1009300078D894F85C3002FA03F131420FD00168A4
:1009400011F0040F0BD0016821F00401016094F84C
:100950005C008240AA60606D40F00100606594F820
:100960005C109548884030420DD0216801EB0802A8
:100970004A452CD8496911F0800F04D0A860606DF9
:1009800040F0020060658C4894F85C10C01C884000
:1009900030420DD0216801EB08024A4519D8096898
:1009A00011F0020F04D0A860606D40F00400606593
:1009B00094F85C1010208840304224D0216801EB6C
:1009C00008024A45096806D801F0080105E00868F0
:1009D000D9E70868ECE701F00401A1B1A86020683C
:1009E0000168490304D50068000308D5A16C07E03D
:1009F0000168C90503D4016821F008010160216C78
:100A000009B12046884794F85C1020208840304285
:100A10003AD0216801EB08024A45096803D801F081
:100A2000100102E065E001F0020169B3A86094F8EA
:100A3000350004282068016806D0490342D50068C3
:100A400000031DD4616C1CE021F0160101602068D8
:100A5000416921F080014161206C08B9A06C20B18E
:100A60002068016821F00801016094F85C203F21B2
:100A70009140A96084F8347084F835A0216D31E08C
:100A8000E16B09B120468847606D002874D0606D25
:100A9000C00726D02068042184F83510016821F0B1
:100AA0000101016020680099491C0091594502D854
:100AB0000168C907F7D184F834700068C0070DD009
:100AC00003200CE00168C905DAD4026822F01002A4
:100AD000026084F8347084F835A0D1E7504684F879
:100AE0003500E16C002960D001B02046BDE8F04F30
:100AF0000847324901448C2957D8314D0423E66D0B
:100B0000291DD5F800C003FA06F81CEA080F13D017
:100B1000D0F800C05FEA4C7C0ED50268920603D480
:100B2000026822F00402026094F85C200868934096
:100B300018430860216CD5E7D5F800C0022303FAFA
:100B400006F81CEA080F18D0D0F800C05FEA8C7CC9
:100B500013D50268920607D4056825F00A050560DA
:100B600084F8347084F835A094F85C2008689340C9
:100B700018430860E16BB5E717E02B68B2401342F9
:100B800013D00268120710D5026822F00E0202602C
:100B900094F85C3050460A680AFA03F31A430A6074
:100BA000C4F854A084F8347099E7BDE8F88F0000C9
:100BB000F0FFFDBF1000002001008000F8ABFDA792
:100BC000005402582DE9F05F044600F065FB002C4C
:100BD000064656D0614A022120684FF0010B4FF0C3
:100BE000200A4FF0030702444FF04009B2F5956F19
:100BF0004FF0000551D884F8345084F8351001685E
:100C000021F00101016006E000F046FB801B052891
:100C100001D9504680E020680068C007F4D104F193
:100C200008002268D4E9051C89C81843D4E90738AC
:100C30000F43116838434A4F40EA0C00666A184374
:100C4000394040EA0800042E40EA010003D1D4E90B
:100C50000B131943084310602068666A4069042E2C
:100C600020F0070046EA00060CD1D4E90A01064349
:100C700041B12046FFF732FC20B1C4F8549084F80B
:100C800035B04CE0206846612046FFF7C5FB94F87C
:100C90005C203F219140816031E0324A83188C2BE7
:100CA00039D884F8345047F6F07684F83510016866
:100CB000A36821EA0609402B28D0802B28D00021E8
:100CC000D4E903C304F1140641EADC0896E8C01035
:100CD00048EAD303D4F8208043EAD60343EAD70195
:100CE00014230AEADC06314341EA181141EA0901FA
:100CF000016020681044B0FBF3F08000E0652046FE
:100D0000FFF79EFBA06880280CD00CE01021D7E7ED
:100D10004FF48041D4E74846606584F8357001207F
:100D2000BDE8F09F6560216E20790860D4E9190163
:100D300041606068401E072808D82046FFF7AEFBD8
:100D4000E06E0560D4E91C01416002E0E5662567BC
:100D50006567656584F835B00020E1E7F0FFFDBF09
:100D60003F8010FEF8ABFDA770B5044600F094FA82
:100D70000546601C02D004480078044400F08CFA58
:100D8000401BA042FAD370BD04000020F8B5040057
:100D900003D094F8510010B104E00120F8BD2046C2
:100DA00000F0FAF8232084F851007148016841F0FE
:100DB00002010160006800F002000090207A08B192
:100DC0004FF4000001F08AFD206800F580500168B2
:100DD00041F00101016000F05FFAE02605464FF4A2
:100DE000FA7706E000F058FA401BB84201D9042017
:100DF00049E0206800F580500068C007F2D1206803
:100E0000D0F8000220F4706501F038FA594A5A49C6
:100E100002448A4202D245F4007516E0574A584906
:100E200002448A4202D245F440750EE05549564AC2
:100E30000144914209D35549554A0844904202D28F
:100E400045F4807501E045F480652068C0F80052E3
:100E500001F014FA4F4A2168B0FBF2F0401EC1F8CD
:100E6000DC002046FFF765FB206800F58050D0F8D5
:100E7000001121F4E01141F40021C0F80011616972
:100E8000880704D00120606584F8516085E72068F8
:100E900047F6FE7300F58050D0F808219A4342EAE5
:100EA0004101C0F8081100214FEA0100E26800EB9F
:100EB000400504EB800302EBC502401C04281160CE
:100EC00051609160D1609A61F0D3A16203232068E0
:100ED00000F58050C0F82C312068E26800F58050A1
:100EE000C0F814212068E26800F58050C0F8202185
:100EF0005FF00002206902EB420604EB820500EB82
:100F0000C600521C042A016041608160C160016119
:100F10004161E862EED3E16321646164E164A1644C
:100F2000206800F58050C0F830312068226900F553
:100F30008050C0F81C212268206902F58052483098
:100F4000C2F82801D4E900208088C2F80003606854
:100F50002368D0F801500278102042EA0522C3F835
:100F60000423616584F8510084F852000020F8BD24
:100F7000F444025800D3CEFEC0E1E40040F1E9FDA4
:100F800040787D0100796CFC005A6202001F0AFA69
:100F900080F0FA0240420F0070B586B0044614217A
:100FA0006846FFF7DFF936492068884266D1354840
:100FB000016841F400410160016801F400410591BC
:100FC000016841F480310160016801F480310591CC
:100FD000016841F400310160006800F400300590C0
:100FE00028480830016841F004010160016801F0FF
:100FF00004010591016841F001010160016801F0FF
:1010000001010591016841F002010160016801F0F0
:1010100002010591016841F040010160006800246F
:101020000B26694600F04000059032200090022512
:101030001548CDE90154CDE9034600F02DF886208E
:101040000090CDE9015411486946CDE9034600F00E
:1010500023F828030090CDE901540D486946CDE9F5
:10106000034600F019F84FF420500090CDE90154E8
:1010700008486946CDE9034600F00EF806B070BD99
:1010800000800240D844025800080258000002586C
:1010900000040258001802582DE9F84F6F4D002245
:1010A0004FF001094FF0030E4FF00F0B0B6809FAD8
:1010B00002F803EA0803434574D14C68022C01D0BE
:1010C000122C0FD1D4080E69570700EB8404A246F6
:1010D000246AFF0E0BFA07FCBE4024EA0C042643E8
:1010E000CAF820600F79540006680EFA04FC07F075
:1010F000030726EA0C06A740374307604E68012E17
:1011000005D0022E03D0112E01D0122E0FD18668E9
:10111000CF6826EA0C06A7403743876046680F79F8
:1011200026EA0806C7F30017974037434760C768A9
:101130008E6827EA0C07A6403E43C6604C68E40070
:1011400030D5474C266846F002062660246822F017
:10115000030606F1B04604F0020400949407270F3A
:10116000D6F80844DFF8FC800BFA07FC404524EA77
:101170000C0402D14FF0000C41E0DFF8ECC06045F8
:1011800002D14FF0010C3AE0DFF8E0C0604502D137
:101190004FF0020C33E0DFF8D8C0604503D14FF0C8
:1011A000030C2CE053E0DFF8CCC0604502D14FF0D7
:1011B000040C24E0DFF8C0C0604502D14FF0050CFC
:1011C0001DE0DFF8B8C0604502D14FF0060C16E014
:1011D000DFF8ACC0604502D14FF0070C0FE0DFF83C
:1011E000A4C0604502D14FF0080C08E0DFF898C0B9
:1011F000604502D14FF0090C01E04FF00A0C0CFAE7
:1012000007FC4CEA040CC6F808C42C684E6824EAB3
:101210000304F60300D51C432C606C684E6824EA76
:101220000304B60300D51C436C604FF0B0444F6814
:101230002668FF0226EA030600D51E4326604F6893
:101240006668BF0226EA030600D51E436660521C8C
:10125000102AFFF42BAFBDE8F88F00008000005883
:10126000F4440258000002580004025800080258D2
:10127000000C0258001002580014025800180258BE
:10128000001C025800200258002402580AB10183B1
:101290007047418370470000014880687047000034
:1012A0000400002002488168027811448160704780
:1012B00004000020032010B500F066F8002000F0C4
:1012C00007F808B1012010BD00F022F8002010BD81
:1012D00070B50D4D04464FF47A700C4A29781268A7
:1012E000B0FBF1F0B2FBF0F001F002FB48B9102CBA
:1012F00007D200222146501E00F026F800206C6024
:1013000070BD012070BD000004000020100000200E
:10131000054808B5016841F002010160006800F06D
:101320000200009008BD0000F4440258002809DBC8
:10133000410900F01F028900012001F1E0219040E5
:10134000C1F80001704700000E4BF0B41B680D4659
:10135000C3F30223C3F10706042E00D90426191D86
:10136000072901D2002300E0DB1E012404FA06F164
:101370009C40491E2940641E994014402143F0BC02
:1013800002F0CEBC0CED00E0064900F0070210B5FB
:101390004FF6FF040868044B204040EA022018433F
:1013A000086010BD0CED00E00000FA0501680122A4
:1013B000C0F8F823886B40F400308863886B40F4F1
:1013C000802088630020704701680123C0F8F4334F
:1013D000002280F8EC238869044A40F000608861AC
:1013E000486D10434865002070470000030000105E
:1013F000F0B504004FF000068BB056D0032084F8FF
:10140000B903204600F062F8206802F035FC04F1D0
:101410001001684628220F46FEF78BFF94E80F0064
:1014200002F01CFB2068002102F04EFC0125002286
:101430003146C6EBC600761C04EB80000F2E80F808
:10144000395080F83810C18780F83B20026442642C
:10145000C264EDD300204FF4827300BFC0EBC00123
:1014600003EB800604EB810181F8F92181F8F80192
:10147000C88781F8FB21C1F80022C1F80422C1F815
:101480000C2221688A51401C0F28E7D328223946B4
:101490006846FEF74EFF94E80F0002F03FFBA06A9B
:1014A00084F8B953012803D005E001200BB0F0BD4A
:1014B0002046FFF789FF606A012802D12046FFF726
:1014C00075FF206802F01EFB0020EFE730B587B003
:1014D000044614216846FEF745FF184920688842F3
:1014E00029D11748016841F001010160006800241A
:1014F0000221144D00F0010005904FF4E8500A223B
:101500008DE81300CDE9034269462846FFF7C4FD84
:101510004FF400706946CDE9000428460294FFF7B5
:10152000BBFD07480838016841F0006101600068B0
:1015300000F00060059007B030BD000000000840DA
:10154000E04402580000025810B500F0DDFE0849E2
:101550004FF480730A6893FAA3F3064902F47062A9
:10156000B3FA83F3DA40044B9A5CD040086010BDB4
:1015700018440258100000205C41000810B500F02B
:101580007DFE07491022096892FAA2F201F070016B
:10159000B2FA82F2D140034A515CC84010BD00004B
:1015A000204402585C410008424A30B5414D141DA8
:1015B00013681435DFED400A1268291FB7EE001AD0
:1015C00024682D6813F0030304F01004C2F30532FD
:1015D000C5F3CC0515FB04F400EE104AB8EE400A42
:1015E00005D0364C012B5DD0022B5BD159E0314C3C
:1015F000334B283C2568AD0615D525680C68C5F326
:10160000C105C4F30804EB4001EE904AB3FBF2F2CB
:10161000F8EE611A40EE201A00EE102A71EE810AEF
:10162000B8EE400A10E00C68B3FBF2F2C4F3080411
:1016300001EE904AB8EE612A01EE902A00EE202ACF
:10164000B8EE610A72EE010A0A6820EE200AC2F3BF
:101650004622521C00EE902AF8EE600A80EE201A14
:10166000FCEEC10AC0ED000A0A68C2F30642521C31
:1016700000EE902AF8EE600A80EE201AFCEEC10A15
:10168000C0ED010A0968C1F30661491C00EE901A19
:10169000F8EE600A80EE201ABCEEC10A80ED020A64
:1016A00030BD084C0B68B4FBF2F2C3F3080301EE43
:1016B000903ABFE7284402580000003900093D0075
:1016C0000090D00300127A00424A30B5414D141DFB
:1016D00013681C35DFED400A1268291FB7EE001AA7
:1016E00024682D6813F0030304F48074C2F30552D8
:1016F000C5F3CC0515FB04F400EE104AB8EE400A21
:1017000005D0364C012B5DD0022B5BD159E0314C1A
:10171000334B283C2568AD0615D525680C68C5F304
:10172000C105C4F30804EB4001EE904AB3FBF2F2AA
:10173000F8EE611A40EE201A00EE102A71EE810ACE
:10174000B8EE400A10E00C68B3FBF2F2C4F30804F0
:1017500001EE904AB8EE612A01EE902A00EE202AAE
:10176000B8EE610A72EE010A0A6820EE200AC2F39E
:101770004622521C00EE902AF8EE600A80EE201AF3
:10178000FCEEC10AC0ED000A0A68C2F30642521C10
:1017900000EE902AF8EE600A80EE201AFCEEC10AF4
:1017A000C0ED010A0968C1F30661491C00EE901AF8
:1017B000F8EE600A80EE201ABCEEC10A80ED020A43
:1017C00030BD084C0B68B4FBF2F2C3F3080301EE22
:1017D000903ABFE7284402580000003900093D0054
:1017E0000090D00300127A002DE9FC5F044650F807
:1017F000241B002500902E460801FE4FDFF8F893C9
:101800001DD5606E50B1B0F5801F0CD0B0F5001F33
:101810000ED0B0F5401F1DD001250FE0386840F410
:101820000030386016E00221201D01F0B1FB03E01A
:101830000098022101F02AFC05000BD02E462088DA
:10184000C00523D5606D05281ED2DFE800F00C111D
:10185000161B1B00626ED9F8001021F440111143D1
:10186000C9F80010EBE7386840F40030386009E050
:101870000021201D01F08CFB03E00098002101F005
:1018800005FC05466DB100E001252E43208880054A
:1018900028D5A06D80281ED00CDC90B140280ED138
:1018A00014E0626DD9F8001021F007011143C9F866
:1018B0000010EBE7C02813D0B0F5807F10D00125D1
:1018C0000FE0386840F40030386009E00021201D46
:1018D00001F05EFB03E00098002101F0D7FB054614
:1018E00095B12E432088DFF81083400508F10808E1
:1018F0002CD5D4F8A400B0F5800F20D00DDCA0B119
:10190000B0F5001F0FD115E0A26DD9F8001021F439
:10191000E0711143C9F80010E4E7B0F5C00F13D02F
:10192000B0F5000F10D001250FE0386840F400300A
:10193000386009E00021201D01F02AFB03E0009837
:10194000002101F0A3FB054675B12E432088000558
:101950002DD5D4F8A800B0F1007F21D00EDCA8B1BD
:10196000B0F1807F10D116E0D4F8A420D8F8001090
:1019700021F460011143C8F80010E7E7B0F1407F9F
:1019800013D0B0F1806F10D001250FE0386840F41B
:101990000030386009E00021201D01F0F9FA03E071
:1019A0000098002101F072FB05466DB12E432068BE
:1019B00080011FD5A06CD8B110280FD0202812D0DC
:1019C000302815D0012514E0D4F8A820D8F800104C
:1019D00021F0E0611143C8F80010E8E7386840F4EE
:1019E0000030386004E00221201D01F0D1FA0546E4
:1019F0006DB12E432088C0042BD5E06DB0F5005F9B
:101A000020D00DDCA0B1B0F5805F0FD115E07A4891
:101A1000A26C001F016821F0300111430160E9E769
:101A2000B0F5405F13D0B0F5804F10D001250FE026
:101A3000386840F40030386009E00021201D01F0D2
:101A4000A7FA03E00098002101F020FB054685B1CC
:101A50002E432088800429D5206EB0F5403F23D046
:101A600010DC08B3B0F5803F14D0B0F5003F0FD1C3
:101A700015E0E26DD9F8001021F4E0411143C9F8F6
:101A80000010E6E7B0F5802F0ED0B0F5A02F0BD0F8
:101A900001250AE00121201D01F07AFA03E00098F7
:101AA000012101F0F3FA05468DB12E432088400450
:101AB0002AD5D4F8AC00B0F1405F23D010DC08B3D5
:101AC000B0F1805F14D0B0F1005F0FD115E0226E4D
:101AD000D9F8001021F4E0211143C9F80010E5E71E
:101AE000B0F1804F0ED0B0F1A04F0BD001250AE02D
:101AF0000121201D01F04CFA03E00098012101F0C2
:101B0000C5FA05466DB12E43208800041FD5E06E4E
:101B1000D8B1B0F1805F0ED0B0F1005F10D00125D8
:101B200014E0D4F8AC20D8F8001021F0E0411143C3
:101B3000C8F80010E8E7386840F40030386004E086
:101B40000121201D01F024FA05466DB12E432068C5
:101B5000C0011ED5606CD0B101280ED0022811D072
:101B6000032814D0012513E0E26ED9F8001021F00B
:101B700040511143C9F80010E9E7386840F40030DB
:101B8000386004E00221201D01F002FA054685B10B
:101B90002E432068DFF85CB04002ABF11C0B1FD570
:101BA0001648016841F480710160FFF775FB8246B9
:101BB00010E01148626C001F016821F0030111431D
:101BC0000160E6E7FFF768FBA0EB0A00642801D993
:101BD000032504E009480068C005F3D5C5B12E43CC
:101BE0002078DFF814A0C0070AF1040A79D0A06FAA
:101BF000182805E02C440258504402580048025866
:101C00006DD05BDCC0B308285ED010285AD161E0EB
:101C1000DFF880A4B4F8B010DAF8000001F44071E5
:101C200000F44070884211D0DAF80010DAF8002091
:101C300021F4407142F48032CAF80020DAF8002022
:101C400022F48032CAF80020CAF80010D4F8B0009C
:101C5000B0F5807F15D1FFF71FFB01900DE000BFAD
:101C6000FFF71AFB0199411A41F28830814204D9E9
:101C7000032546F00306B3E731E0DAF800008007F9
:101C8000EED5D4F8B010C1F30120032858460DD08A
:101C9000016821F47C510160B4F8B020DAF800103A
:101CA000C2F30B021143CAF8001099E7FA4A03681D
:101CB00002EA111223F47C511143ECE720280ED0E4
:101CC00028280CD001250BE00121201D01F060F92E
:101CD00004E006E00098012101F0D8F905465DB165
:101CE0002E43207880071ED5606F062819D2DFE8C2
:101CF00000F0160C11161616A26FDAF8001021F07B
:101D000038011143CAF80010EBE70121201D01F052
:101D10003FF903E00098012101F0B8F9054675B1DB
:101D200000E001252E43207840071FD5D4F890000D
:101D3000062819D2DFE800F0160C11161616626F8D
:101D4000DAF8001021F007011143CAF80010EAE7A1
:101D50000121201D01F01CF903E00098012101F090
:101D600095F905469DB100E001252E4320788006B7
:101D70002BD5D4F88C00B0F1405F24D011DC10B327
:101D8000B0F1805F15D0B0F1005F10D116E0D4F84B
:101D90009020D8F8001021F007011143C8F8001076
:101DA000E4E7B0F1804F0ED0B0F1A04F0BD0012589
:101DB0000AE00021201D01F0EBF803E00098022169
:101DC00001F064F905468DB12E43207840062BD5ED
:101DD000D4F89800B0F5406F24D011DC10B3B0F502
:101DE000806F15D0B0F5006F10D116E0D4F88C20BC
:101DF000DAF8001021F0E0411143CAF80010E4E7DE
:101E0000B0F5805F0ED0B0F5A05F0BD001250AE0E1
:101E10000021201D01F0BCF803E00098022101F030
:101E200035F905468DB12E43207800062BD5D4F820
:101E30009C00B0F5C04F24D011DC10B3B0F5005FAA
:101E400015D0B0F5804F10D116E0D4F89820D8F80E
:101E5000001021F4E0511143C8F80010E4E7B0F598
:101E6000004F0ED0B0F5204F0BD001250AE0002125
:101E7000201D01F08DF803E00098022101F006F921
:101E8000054665B32E43207800070BD5D4F88010A3
:101E9000B1F5805F2DD0DAF8002022F440520A43D9
:101EA000CAF800202078C0060BD5D4F89410B1F5FC
:101EB000807F24D0D8F8002022F440720A43C8F86A
:101EC0000020206800032CD5D4F8A000E8B1B0F5BC
:101ED000803F1FD0B0F5003F21D0012520E0D4F88D
:101EE0009C20D8F8001021F460411143C8F800107C
:101EF000C9E70098022101F0C9F80643D2E700982B
:101F0000022101F0C3F80643DBE70021201D01F0A8
:101F10003FF803E00098022101F0B8F8054685B1CA
:101F20002E432068400322D5D4F88400B0F5801FEA
:101F300011D0B0F5001F13D0B0F5401F15D001250A
:101F400014E0D4F8A020D8F8001021F44031114357
:101F5000C8F80010E5E7386840F40030386004E065
:101F60000098012101F092F8054655B12E432068F2
:101F7000C0031CD5E06C70B1B0F5803F10D00125D6
:101F800014E0D4F88420DAF8001021F44011114351
:101F9000CAF80010EBE7386840F40030386004E01D
:101FA0000221201D00F0F4FF0546C5B12E43206834
:101FB000800004D50098022101F068F806432068EB
:101FC00080031BD5E06FB8B1B0F5807F10D0B0F5BD
:101FD000007F11D0B0F5407F0ED001250DE02D48D7
:101FE000E26C2438016821F4803111430160DEE79E
:101FF000386840F400303860F5B32E432068C002E2
:1020000007D5226FD9F8001021F000411143C9F81B
:1020100000102068C00008D5D4F8B420DBF8001008
:1020200021F480411143CBF800102068800207D5CD
:10203000A26ED9F8001021F080711143C9F8001088
:10204000206840000CD5DBF8001021F40041CBF8EB
:102050000010DBF80010D4F8B8201143CBF80010C2
:102060002068002807DA0B48226D2438016821F027
:1020700040511143016000E003E07EB10120BDE862
:10208000FC9FE26FDAF8001021F440711143CAF8A6
:102090000010B3E770440258CFFFFF000020EEE7C6
:1020A0002DE9F047DFF8C49104460E46D9F8000048
:1020B00000F00700B0420CD2D9F8001021F007015F
:1020C0003143C9F80010D9F8000000F00700B04211
:1020D00072D12078DFF89881800707D5E268D8F8B8
:1020E000001021F00F011143C8F800102078C0073C
:1020F00067D05F49A368D8F80020183922F47062CD
:102100001A43C8F80020606802281CD003281DD09C
:10211000096801281DD04907002963DA544D083D9C
:10212000296821F0070101432960FFF7B5F86168CC
:10213000074641F28830022914D0032920D0012912
:1021400082462AD039E009688903E5E709688901F0
:10215000E2E7C905E0E700BFFFF79EF8C11B514564
:1021600001D926E082462868C0F3C2000228F3D1D4
:1021700027E000BFFFF790F8C11B514501D918E0D7
:1021800082462868C0F3C2000328F3D119E000BFDB
:10219000FFF782F8C11B51450BD82868C0F3C20075
:1021A0000128F5D10DE000BFFFF776F8C11B5145BE
:1021B00003D90320BDE8F08714E0286810F0380F39
:1021C000F2D1D9F80010484601F00701B1420BD90D
:1021D000016821F0070131430160006800F0070049
:1021E000B04201D00120E5E72078400707D52269F9
:1021F000D8F8001021F070011143C8F800102178C0
:102200001B48001D090705D56269016821F07001AE
:10221000114301602178C90605D5A269016821F43E
:10222000E061114301602078800607D51048E2691B
:102230000830016821F070011143016000F064F87A
:10224000D8F800104FF4807292FAA2F201F4706193
:10225000B2FA82F2D140074A515CC8400649086090
:102260000020FFF735F80020A4E70000002000520E
:10227000184402585C4100081000002010B5FFF718
:1022800063F9084901230A6893FAA3F3064902F0A7
:102290000F02B3FA83F3DA40044B9A5CD040086033
:1022A00010BD000018440258140000205C410008D2
:1022B00010B5FFF7E3FF07491022096892FAA2F26E
:1022C00001F07001B2FA82F2D140034A515CC84079
:1022D00010BD00001C4402585C41000810B5FFF717
:1022E000CDFF07494FF48072096892FAA2F201F417
:1022F000E061B2FA82F2D140024A515CC84010BD9E
:102300001C4402585C4100084749F0B54748096839
:10231000454B103B11F0380409D00111082C04D0B2
:10232000C210102C0BD0182C0BD00846F0BD196829
:102330008906FBD51968C1F3C101C840F0BD10463C
:10234000F0BD394CDFF8E0C01834261D0CF1240C28
:102350002768351D2468DFED360AB7EE001A3668A7
:10236000DCF800C017F0030706F00106C4F30514FB
:10237000CCF3CC0C1CFB06F600EE106AB8EE400A5B
:1023800009D0012F01D0022F3BD02868B1FBF4F116
:10239000C0F308003AE01968890615D51A6829685B
:1023A000C2F3C102C1F30801D04001EE901AB0FBA4
:1023B000F4F0F8EE611A40EE201A00EE100A71EE09
:1023C000810AB8EE400A0BE02968B0FBF4F0C1F3D3
:1023D000080101EE901AB8EE612A01EE900A1BE0A6
:1023E00020EE200A2868C0F34620401C00EE900A28
:1023F000F8EE600A80EE201ABCEEC10A10EE100A58
:10240000F0BD2868B2FBF4F1C0F3080001EE900AB9
:10241000B8EE612A01EE901A00EE202AB8EE610AA9
:1024200072EE010ADCE70000104402580090D0036D
:10243000000000392DE9F047FF4C05460078DFF831
:10244000F883103CFC4FC00708F118084CD03868DE
:10245000C0F3C20002281AD03868C0F3C2000328B3
:1024600005D1D8F8000000F0030002280FD06868FA
:10247000B0F5803F12D010B1B0F5A02F18D0206871
:1024800020F480302060206820F4802009E020685B
:10249000800329D56868002876D025E0206840F4BC
:1024A00080302060686890B1FEF7F6FE06460AE0CC
:1024B000206840F480202060F0E700BFFEF7ECFECB
:1024C000801B64287ED820688003F7D50CE0FEF7D7
:1024D000E3FE064605E000BFFEF7DEFE801B642833
:1024E000F0D820688003F7D42878D34E0C3E8007BC
:1024F0005DD538684FF47C3A10F0380F13D0386847
:10250000C0F3C200032803D1D8F8000080070AD026
:10251000E868C0B3216821F0190101432160FEF78A
:10252000BBFE814620E02068400702D5E86800280D
:10253000B2D0E968206820F0190008432060FEF757
:10254000ABFE814606E000BFFEF7A6FEA0EB090049
:102550000228B7D820684007F6D508E0FEF79CFEB1
:10256000A0EB09000228ADD820684007F6D52869FD
:1025700032689AFAAAF1B1FA81F1884022F47C31EA
:102580000143316013E000E0AAE0206820F0010080
:102590002060FEF781FE814606E000BFFEF77CFE6C
:1025A000A0EB090002288DD820684007F6D42878CF
:1025B000C00649D538684FF0F84AC0F3C200012878
:1025C00017D000E0DAE03868C0F3C200032805D174
:1025D000D8F8000000F0030001280AD0E8690028BC
:1025E000206822D040F080002060FEF755FE814632
:1025F0000CE02068C0050CD5E869802870D108E09F
:10260000FEF74AFEA0EB09000228A2D82068C00508
:10261000F6D5286A32689AFAAAF1B1FA81F18840AF
:1026200022F0F841014331600EE020F0800020608C
:10263000FEF732FE064604E0FEF72EFE801B02285F
:1026400087D82068C005F7D42878000729D57A48AC
:102650006969643000298146016811D041F00101A7
:102660000160FEF719FE064605E000BFFEF714FE06
:10267000801B022897D8D9F800008007F6D510E013
:1026800021F001010160FEF707FE064605E000BFEC
:10269000FEF702FE801B022870D8D9F800008007E0
:1026A000F6D42878800625D5A8690028206810D09F
:1026B00040F480502060FEF7EFFD064605E000BFC5
:1026C000FEF7EAFD801B022858D820688004F7D561
:1026D00010E020F480502060FEF7DEFD064606E0A4
:1026E000D7E000BFFEF7D8FD801B022846D820683F
:1026F0008004F7D4287840074FD5DFF84091D9F807
:10270000001041F48071C9F80010FEF7C5FD0646BF
:1027100005E000BFFEF7C0FD801B64282ED8D9F865
:102720000000C005F6D5444EA868603601280AD0DE
:1027300008B1052813D0306820F0010030603068FF
:1027400020F0040002E0306840F001003060A8682A
:1027500041F2883A98B1FEF79FFD81460AE0306861
:1027600040F004003060EEE7FEF796FDA0EB0901B3
:10277000514503D830688007F6D50EE088E0FEF7B3
:102780008BFD814606E000BFFEF786FDA0EB090148
:1027900051457DD830688007F6D4686AE8B3396857
:1027A000C1F3C201032974D00228206820F0807090
:1027B000206003D0FEF770FD054685E0FEF76CFD56
:1027C000064604E0FEF768FD801B022879D82068E1
:1027D0008001F7D4EB6A40F2F332D8F800104FF4DE
:1027E000FE0755F8286F914341EA03113143C8F8B9
:1027F0000010287B4FF0FE4C0F4EB5F808804002C9
:102800002B8A20362A7DA8F10108311DA0F5007021
:1028100080B25B1EC8F3080800E058E0521E07EAC9
:10282000034340EA080018434FF6F8730CEA0262CB
:10283000104330600A6803E0104402580048025810
:1028400093FAA3F72E6A24489A43B7FA87F7BE4053
:1028500032430A600168AA6921F00C01114301604A
:102860000168EA6921F0020111430160016841F445
:1028700080310160016841F400310160016841F478
:1028800080210160016841F001010160206801E0E0
:1028900017E01EE040F080702060FEF7FDFC05466A
:1028A00005E000BFFEF7F8FC401B022809D82068AD
:1028B0008001F7D50BE000BFFEF7EEFC401B0228BD
:1028C00002D90320BDE8F08720688001F4D40020FD
:1028D000F8E70120F6E700002C44025803490A6893
:1028E00022F4600202430A607047000004040058AA
:1028F000401EB0F1807F10B501D3012010BD4FF014
:10290000E02460610F21601701F00AFA0020A06145
:102910000721216110BD70477047000070B5026843
:102920000446D0691368916810F00F0F64D0594DB8
:1029300003F490760D40354376D0C50707D0DD050A
:1029400005D501251562E26F42F00102E2678207B8
:1029500008D5CA0706D0256802222A62E26F42F033
:102960000402E267420708D5CA0706D02568042298
:102970002A62E26F42F00202E26702070ED503F01C
:10298000200201F080552A4352EAC17206D0256820
:1029900008222A62E26F42F00802E267E26F002A30
:1029A0003AD0800608D503F0200001F0805108439A
:1029B00002D0204600F034FDE06F000703D4206809
:1029C000806840062AD5204600F01CFD20688168FA
:1029D00049061ED5816821F040018160606FC0B159
:1029E0002D490165606FFDF741FF002814D0606F2D
:1029F000016DBDE870400847850615D503F0200538
:102A000001F0805635430FD02046BDE8704000F0FD
:102A100007BD2046FFF780FF70BD05E02046FFF7A9
:102A20007BFF0020E067F7E7C6024FF020050CD5DA
:102A30004E020AD5E803106284F8795084F87A507F
:102A40002046BDE87040FFF766BF06060AD503F0D2
:102A5000800601F400010E4304D02046BDE870401A
:102A600000F08EBF41060BD5590609D511682046E6
:102A700021F04001116084F8795000F066F9CBE74D
:102A80000002C9D55800C7D5106820F080401060FA
:102A9000C2E7000001000010F133000810B5040087
:102AA00003D094F8790010B107E0012010BD002098
:102AB00084F87800204600F027F8242084F8790074
:102AC0002068016821F001010160204600F0E4FC6B
:102AD0000128EBD0606B10B1204600F0F7FB2068B6
:102AE000416821F4904141602068816821F02A0109
:102AF00081602068016841F0010101602046BDE865
:102B0000104000F047BC00002DE9F04186B00646B9
:102B100014216846FDF726FC53480024534B022538
:102B20003268083850490827DFF844819A424DD16D
:102B30000A6842F400220A60096801F40021059144
:102B4000016841F001010160016801F00101059196
:102B5000016841F0040101600068694600F004006A
:102B6000059001200090CDE901544248CDE903478A
:102B7000FEF792FAA8020090CDE90154CDE903478F
:102B800069464046FEF788FA3B4D40203B4902012A
:102B9000296081026860C5E90204C5E90424AC61CA
:102BA0002846C5E907416C62FEF70CF808B1FDF74D
:102BB0005BFE0022356734201146AE63FEF7C4FB8E
:102BC0003420FEF7B3FB06B0BDE8F0812C4B9A42EF
:102BD0002AD10A6842F480120A60096801F480115F
:102BE0000591016841F002010160016801F00201F4
:102BF0000591016841F00401016000689E14694676
:102C000000F0040005900E200096CDE90154CDE9B6
:102C100003401C48FEF740FA00966946CDE901548E
:102C2000CDE9034740461CE0174B9A42CBD10A68D6
:102C300042F480220A60096801F48021059101684C
:102C400041F0080101600068072100F008000590CC
:102C50004FF440700090CDE90154CDE903410B4899
:102C60006946FEF719FAAEE7E8440258004C004006
:102C700000080258000002584006002028000240C8
:102C8000005000400004025800480040000C025868
:102C9000704700002DE9F843044690F879001F467C
:102CA00016460D4620284ED1C5B1BEB194F8780025
:102CB000012848D0012284F8782021214FF0000813
:102CC000C4F87C8084F879106034FEF7E5FA268039
:102CD00081466680603C4FF4805619E00120BDE8D3
:102CE000F88300BFB4F86200401EA4F8620000221E
:102CF0004B4680212046009700F07DFEA0B9A068D9
:102D0000B04201D1206988B115F8010B216808850E
:102D1000B4F862000028E5D100224B46402120464D
:102D2000009700F068FE38B10320D8E735F8020BB1
:102D30002168C0F30800EAE7202184F87910002018
:102D400084F87880CBE70220C9E77047FEE70000EF
:102D500017487CB515490024016080228DF8004099
:102D6000E1238DF8012001258DF8023040F2F45165
:102D70008DF804408DF803408DF80540C0F804D06C
:102D80000C4A0572C2600C4AC0E90421FDF7FEFF3F
:102D9000074834213438FDF7E5FA054821224FF47D
:102DA000403134380260C0E904417CBD00800240FB
:102DB0005800002060000430000004302DE9F0418C
:102DC00086B014216846FDF7CDFA3348016841F01A
:102DD00004010160016801F004010591016841F0FE
:102DE00080010160016801F080010591016841F0F6
:102DF00001010160016801F001010591016841F0E4
:102E000002010160016801F002010591016841F0D1
:102E100008010160016801F008010591016841F0B5
:102E20004001016000684FF481461C4F002200F011
:102E30004000314605903846FEF728FADFF86080FA
:102E4000002240214046FEF721FA164900244FF4A3
:102E500000508DE8130014486946FEF71DF901255E
:102E60000096CDE90154694638460394FEF714F9FB
:102E700040200090CDE90154694640460394FEF796
:102E80000BF980206946CDE9000440460294FEF724
:102E900003F906B0BDE8F081E0440258000402588E
:102EA0000018025800001111000802580C480021B7
:102EB00030B40A4C0C224FF416530460C0E90131BF
:102EC000C160C0E904128161C16101624162816235
:102ED000C1620163416330BCFFF7E0BD004C0040BC
:102EE000C00000200C48002130B40A4C0C224FF4E2
:102EF00016530460C0E90131C160C0E90412816168
:102F0000C161016241628162C1620163416330BC9F
:102F1000FFF7C4BD00500040400100200C480021D4
:102F200030B40A4C0C224FF4E1330460C0E90131A3
:102F3000C160C0E904128161C161016241628162C4
:102F4000C1620163416330BCFFF7A8BD0048004087
:102F5000C00100200B48002130B40223084D01229B
:102F6000C0E9033183610924C0E90721C0E90921CF
:102F7000C0E90B21C0E9005430BCFEF739BA0000AB
:102F80000000084040020020FEE770477047000044
:102F90002DE9F0473C4E044689464FF0000A306860
:102FA000C04380070AD0384D283D286820F0806053
:102FB0002860FEF771F90746A84608E00120BDE841
:102FC000F08700BFFEF768F9C01B022855D8D8F873
:102FD00000000001F6D4206831684FF4FE0C4FF079
:102FE000FE4721F47C3141EA00303060207AA68827
:102FF000A3894002244D761E23495B1E227C103596
:10300000091DA0F5007080B2521EC6F308063043B9
:103010000CEA0343184307EA026210432860086879
:10302000626920F0C000104308600868A26920F0BF
:10303000200010430860B9F1000F11D00868B9F101
:10304000010F11D040F400100860D8F80000444689
:1030500040F08060C8F80000FEF71EF905460EE05B
:10306000086840F40020EFE740F48010ECE700BF70
:10307000FEF712F9401B022801D903209FE72068C0
:103080000001F5D550469AE7284402582DE9F0474B
:103090003C4E044689464FF0000A3068C043800722
:1030A0000AD0384D283D286820F080502860FEF76F
:1030B000F3F80746A84608E00120BDE8F08700BF06
:1030C000FEF7EAF8C01B022855D8D8F800008000A7
:1030D000F6D4208831684FF4FE0C4FF0FE4721F003
:1030E0007C7141EA00503060207AA688A3894002B2
:1030F000244D761E23495B1E227C1835091DA0F540
:10310000007080B2521EC6F3080630430CEA034337
:10311000184307EA0262104328600868626920F4D5
:103120004060104308600868A26920F400701043F2
:103130000860B9F1000F11D00868B9F1010F11D082
:1031400040F080700860D8F80000444640F080509D
:10315000C8F80000FEF7A0F805460EE0086840F445
:103160008000EFE740F40000ECE700BFFEF794F8C2
:10317000401B022801D903209FE720688000F5D575
:1031800050469AE7284402587047FEF78BB8000073
:1031900070B5CCB04C212FA8FDF7E4F8202142A84F
:1031A000FDF7E0F8BC216846FDF7DCF8204801682F
:1031B00021F0040101601E480C300024016841F434
:1031C00040410160016801F440414A91016889046D
:1031D000FCD54FF4A022012102203890CDE92F1216
:1031E00039AA1823042582E80B000C263E90CDE96D
:1031F0003C05CDE93F642FA84194FFF71BF942AA93
:103200003F20032182E813000121459442A84694FF
:10321000479448944994FEF743FF06481D94009054
:10322000C10468462191FEF7DFFA4CB070BD000082
:103230000C480258020004001D4AF0B51D491468EC
:1032400000201C4B44F47004146010330A681A4CBC
:1032500042F001020A6018600D68164A25400D60B0
:103260001832131D1C1D134D1060283518602A1DBF
:103270002060131D1C1D2860251D10602A1D18606C
:10328000131D20601C1D28601060186020600A68F3
:103290000124084B064FE606084D6033803F22F4B8
:1032A00080220A601860C5F808413E60F0BD000049
:1032B00088ED00E0004402587FEDF6EA00800051FE
:1032C0000148FFF72BBB0000C000002090F834102D
:1032D000C90706D00168836B4A6822F400321A439A
:1032E0004A6090F83410890706D50168C36B4A68B4
:1032F00022F480321A434A6090F83410490706D508
:103300000168036C4A6822F480221A434A6090F8EC
:103310003410090706D50168436C4A6822F400425C
:103320001A434A6090F83410C90606D50168836CC8
:103330008A6822F480521A438A6090F83410890611
:1033400006D50168C36C8A6822F400521A438A6069
:1033500090F83410490611D50168036D4A6822F4CB
:1033600080121A434A60016DB1F5801F06D10168D1
:10337000436D4A6822F4C0021A434A6090F8341040
:10338000090606D50168826D486820F400201043C4
:1033900048607047F8B500260446C667FDF77CFF15
:1033A000054620686FF07E470068000708D50022B8
:1033B0002B464FF400112046009700F01CFB60B92B
:1033C0002068006840070AD500222B464FF4800190
:1033D0002046009700F00FFB08B10320F8BD202025
:1033E00084F8790084F8786084F87A000020F8BDC9
:1033F00010B5806B0021A0F86A10A0F86210FFF7EA
:103400008BFA10BD016820220B6823F490730B60C7
:1034100001688B6823F001038B6080F87A20704785
:1034200010B590F87A10B0F86C202229016805D008
:10343000088B40F008000883022010BD898C836847
:10344000B3F5805F01D103696BB1436E11405A1C23
:1034500042661970B0F86A10491E0904090CA0F8F8
:103460006A1007D015E0436E11401980416E891C27
:103470004166EFE7016820220B6823F490730B602C
:1034800001688B6823F001038B6080F87A20FFF7D6
:10349000FFFB002010BD00002DE9F04F044602683C
:1034A000816887B0C369D4E90465806A3143F84E06
:1034B0001D4313682943DFF8DC930843802533401C
:1034C00000210343136020680F46E368426822F43A
:1034D00040521A4342602368A0694B4501D0226ADA
:1034E0001043A26AB2F1005F03D1D4E90B26324344
:1034F0001043D3F808C0DFF8A083E84EE84A0CEA8E
:10350000080C4CEA000CC3F808C02068D4F824C0AA
:10351000C36A23F00F0343EA0C03C3622068B0427E
:1035200010D1126802F03802182A74D005DCCAB330
:10353000082A7AD0102A47D179E0202A7BD0282A7D
:103540007CD17AE0D74B984209D1126802F0070289
:10355000062A73D2DFE802F053696B6D6F71D24BAC
:10356000984209D1126802F00702062A66D2DFE803
:1035700002F0465C5E606264CC4B984209D11268EE
:1035800002F00702062A59D2DFE802F0394F515300
:103590005557C74B98420BD1126802F00702062A12
:1035A0004CD200E00EE0DFE802F02A4042444648F8
:1035B000C04B984209D1126802F03802182A38D05C
:1035C000BBDCB4E74FF0010538E0BB4B984209D1B2
:1035D000126802F00702062A30D2DFE802F0102655
:1035E000282A2C2EB54B98420BD1126802F0070204
:1035F000062A23D2DFE802F003191B1D1F21002534
:103600001CE048451AD1A64A121D126802F00702B2
:10361000062A13D202E00CE007E00CE0DFE802F03B
:10362000030507090B0D022508E0042506E04025E7
:1036300004E0082502E0102500E02025A04EDFF878
:1036400084A24845DFF880B27DD1102D31D006DC50
:10365000022D09D0042D0AD0082D2FD111E0202DE4
:1036600029D0402D2AD107E0FDF788FF13E06846F6
:10367000FDF79AFF01980EE003A8FEF725F80498DD
:1036800009E0DBF800005946800610D50968C1F34F
:10369000C1012AFA01F0002811D06168894601EBC6
:1036A000410181420AD8B0EB093F07D808E05046F3
:1036B000F3E78648F1E74FF40040EEE7012759E1D0
:1036C000102D4FF000085BD006DC022D11D0042D28
:1036D00020D0082D04D13AE0202D57D0402D1ED007
:1036E00001277B4AA0F540719142E7D82168C86064
:1036F00040E1FDF743FF626A0023414636F812209D
:10370000FCF7E6FD6268090241EA106103465008D1
:103710001B0216E06846FDF747FF019803E003A887
:10372000FDF7D2FF04980023616A36F8112019468C
:10373000FCF7CEFD626803461D0E50081B0245EAE9
:103740000121181800E036E041EB080114E0DBF835
:1037500000005946800609D509680023C1F3C1015C
:103760002AFA01F0616A36F8112015E0606A002338
:1037700036F8102050460FE00023FCF7A9FDB0E713
:10378000606A002336F81020504805E0606A002384
:1037900036F810204FF400400021FCF799FD024656
:1037A0004FEA5900130E120210184A4643EA01214B
:1037B00041EB0801E0E7E3694FF40042934257D13F
:1037C000082D2BD005DC95B1012D13D0042D06D189
:1037D00018E0102D3DD0202D43D0402D18D00127CA
:1037E000226821F00F00C1F3420108439CE0FEF77C
:1037F0005FFD01E0FEF772FD0146606A36F81020B9
:1038000060682BE06846FDF7CFFE626A019922E00E
:1038100003A8FDF759FF626A04991CE0DBF8001069
:103820005846626A890608D5036836F8122060682F
:10383000C3F3C1032AFA03F110E036F812206068DE
:10384000BAFBF2F1490001EB5001B1FBF0F081B29B
:10385000C6E71E49626A606836F81220B1FBF2F1D1
:10386000F0E7616A606836F81110B2FBF1F1E9E740
:10387000082D5BD02EDC55B1012D46D0042D7FF4F0
:103880001DAF6846FDF790FE626A01992DE039E0B0
:10389000F369FFCF000C0058FFF4FF110010014046
:1038A000544402580044004000480040004C00408E
:1038B000005000400014014000780040007C0040AF
:1038C0003C4100080090D0030044025800093D002C
:1038D000FFFC0F00102D3ED0202D3FD0402DCED12B
:1038E00003A8FDF7F1FE626A0499D4E9003036F8C6
:1038F0001220B1FBF2F101EB5001B1FBF0F080B20C
:10390000D86037E0FEF7D4FC01E0FEF7E7FC0146A3
:10391000606A36F81030D4E90020B1FBF3F101EB16
:103920005001B1FBF0F080B2D06023E0DBF8002062
:103930005946636A920608D50D68616836F81330F7
:10394000C5F3C1042AFA04F20CE036F813306168BA
:10395000BAFBF3F208E0094A636A00E0636A61684F
:1039600036F81330B2FBF3F202EB5102B2FBF1F185
:1039700089B2C16007B03846BDE8F08F00093D004C
:1039800090F87910212901D002207047B0F8621018
:1039900021B18168B1F5805F13D014E001680A6835
:1039A000920004D58A6822F400028A6003E00A6863
:1039B00022F080020A600068016841F04001016065
:1039C0000DE0016969B1C16D4A1CC26502680978E0
:1039D000A2F82810B0F86210491EA0F8621000206A
:1039E0007047C16D02680988C1F308011185C16D76
:1039F000891CC165EEE72DE9F041984617460E4651
:103A00000446069D1DE0681C1BD02DB1FDF744FC4B
:103A1000A0EB0800A84214D92168202000220B68DE
:103A200023F4D0730B6021688B6823F001038B6053
:103A300084F8790084F87A00032084F87820BDE8BF
:103A4000F0812068C06936EA000004D00020B84246
:103A5000D9D00020F3E70120F9E7000070B5044653
:103A6000049D06990D9801290CD0E06840F04000B3
:103A7000E060204600F02AF84FF48030A063012D6A
:103A800017D01EE0A26B1049012822F48030A063F9
:103A9000E06800EA0100E060E06820F44010E060C7
:103AA00003D1E06840F48010E060204600F00EF89A
:103AB000E5E7A06840F00C00A060A06840F020009E
:103AC000A060002070BD0000BFFFBDFF0C490122B7
:103AD00002E0521C8A420BD80369002BF9DA036911
:103AE000012243F00103036104E0521C8A4201D920
:103AF000032070470369DB07F7D1002070470000FF
:103B0000400D030010B5D0F8041841F00201C0F8D0
:103B100004180320FDF728F9002010BD2DE9F04717
:103B20000E460446DDE90A1ADDF83C80089F826BE8
:103B30005FEA080042F400104FF00005A0630BD1CB
:103B4000A06B20F40010A063206840F040002060CB
:103B5000206840F0800020604FF00009C4F8009E0B
:103B6000D4F800080129C4F8000804D0D4F80008EB
:103B700040F0030004E0D4F800080BB140F001006D
:103B8000C4F800081021204600F08CF8204600F010
:103B900079F848464FF0FF314FF09043FF22C4F8C8
:103BA0001098C4F81498C4F81818C4F81C9810E0B9
:103BB00004EB4511D1F800C9BCF1000F02DAC1F8DD
:103BC000003901E0C1F80009C1F81009C1F808295D
:103BD0006D1CAE42ECD8002111E000BF04EB411592
:103BE000D5F800CBBCF1000F02DAC5F8003B01E0CC
:103BF000C5F8000BC5F8100BC5F8082B491C8E4200
:103C0000ECD8D4F81018012F21F48071C4F81018E2
:103C10000AD11549154AC4F83018D4F830181143A0
:103C2000C4F83018D4F830186FF08041A061616199
:103C30001FB9A06940F01000A061A0690C4ABAF158
:103C4000000F40EA0200A06103D0A06940F0080024
:103C5000A061B8F1010F03D1A06906490843A06132
:103C60000020BDE8F0870000000400020300010806
:103C700000383C8004000040816821F0010181602F
:103C8000002070471021064A01610021491C914221
:103C900001D9032070470369DB06F7D40020704781
:103CA000400D03002023074A43EA811300210361EA
:103CB000491C914201D90320704703699B06F7D440
:103CC00000207047400D030010B5C268012922F0A2
:103CD000C042C26001D021B107E0C16841F000518B
:103CE00002E0C16841F08041C1603220FDF73CF83C
:103CF000002010BDFEE700000FB4084B10B504A96A
:103D000002AA039800F02CF8044602A9002000F053
:103D1000C8F9204610BC5DF814FB0000A340000861
:103D2000090700284FEA116104DB00F1E02080F868
:103D30000014704700F00F0000F1E02080F8141D1F
:103D4000704702E008C8121F08C1002AFAD1704764
:103D50007047002001E001C1121F002AFBD170470B
:103D60002DE9FF4F8BB088460546002606E0252842
:103D70000BD0DDE90D1290476D1C761C28780028C9
:103D8000F5D10FB03046BDE8F08F0024A146A24621
:103D90000122AE4900E0044315F8013F203B02FA3E
:103DA00003F00842F7D128782A2810D06FF02F02AC
:103DB0002878A0F13001092915D809EB890102EB17
:103DC000410144F0020400EB01096D1CF0E758F8D2
:103DD000041B5FEA010903D544F40054C9F100094A
:103DE00044F002046D1C28782E2817D115F8010F15
:103DF00044F004042A280ED06FF02F022878A0F196
:103E0000300109290AD80AEB8A0102EB410100EBD3
:103E1000010A6D1CF2E758F804AB6D1C28786C2879
:103E20000FD006DC4C2817D068280DD06A2814D192
:103E300004E0742810D07A280FD10DE044F4001467
:103E40000AE044F4801401E044F4401469788142AB
:103E500002D104F580146D1C6D1C2878692865D08A
:103E600006DC00288DD0632827D0642806D15DE0C9
:103E70006E2808D073282AD0752877D0DDE90D1276
:103E80009047761CE0E0C4F30250022809D00328D2
:103E90000DD0D8F8001004280DD00E6008F10408E9
:103EA000D2E0D8F80010F217C1E90062F6E7D8F8BE
:103EB00000100E80F2E70E70F0E718F8041B8DF882
:103EC000001000208DF80100EB46012003E058F8B7
:103ED00004BB4FF0FF3061074FF0000701D40AE048
:103EE0007F1C57450DDA8742FADB1BF807100029C3
:103EF000F6D106E07F1C8742FCDB1BF80710002987
:103F0000F8D1DDE90D23A9EB07008146214600F039
:103F1000B1F83044C61904E0DDE90D121BF8010BBD
:103F200090477F1EF8D22146484688E058F8040B97
:103F3000C4F302514FF00A0B032900D100B2042947
:103F400000D140B2002802DA40422D2102E02105D2
:103F500005D52B218DF82410012104E006E0E107AE
:103F600010D02021F6E708AF089113E058F8040BB1
:103F7000C4F302514FF00A0B032900D180B2042987
:103F800000D1C0B20021EEE75946FCF7F6F9303116
:103F900007F8011D0028F7D1ADEB070000F1200B59
:103FA000600702D524F4803401E04FF0010ADA45BD
:103FB00002DDAAEB0B0000E00020824600EB0B01C3
:103FC00008980144A9EB01000A90E00306D4DDE95A
:103FD0000D2321460A9800F04DF806444FF00009E1
:103FE00008E009A911F80900DDE90D12904709F16F
:103FF0000109761C08998945F3DBE0030CD5DDE95E
:104000000D2321460A9800F035F8064404E0DDE966
:104010000D1230209047761CBAF10001AAF1010A76
:10402000F5DC05E0DDE90D1217F8010B9047761C71
:10403000BBF10001ABF1010BF4DC0A982146DDE98C
:104040000D2300F005F806446D1C97E609280100D1
:104050002DE9F041044600251E461746880404D485
:1040600005E039462020B0476D1C641EF9D528466E
:10407000BDE8F0812DE9F041044600251E4690463A
:10408000C80301D5302700E02027880404D505E0C7
:1040900041463846B0476D1C641EF9D52846BDE838
:1040A000F0810A68531C0B601070704708B5FDF76B
:1040B00001F9FFF76DF8FEF781FE1A48016841F03B
:1040C0000101016000680022114600F0010000902B
:1040D0000C20FDF739F90C20FDF728F9FEF738FE22
:1040E000FEF71CFFFEF736FFFEF7E0FEFEF7FAFED6
:1040F0000D4C4FF4FA664FF0FF350CA16088401C60
:1041000082B20D486280FFF7F7FD0B4982B22B4661
:10411000228001F1A800FEF7BDFD3046FCF724FE29
:10412000EBE70000D844025800000020526F6C6C8E
:104130003D25640D00000000180000200100020071
:104140000400060008000A000C00100020004000D7
:104150008000000100061016000610160000000086
:104160000102030401020304060708098C41000848
:104170000000002018000000423D0008A441000893
:1041800018000020A00A0000523D000800000000B6
:104190000100000010000000000000000090D003AB
:0441A0000090D003B8
:040000050800029954
:00000001FF
